:100000000C943E000C9453000C9453000C94530039
:100010000C9453000C9453000C9453000C94530014
:100020000C9453000C9453000C9453000C94530004
:100030000C9453000C9453000C9453000C945300F4
:100040000C9453000C9453000C9453000C945300E4
:100050000C9453000C9453000C9453000C945300D4
:100060000C9453000C9453000C9453000C945300C4
:100070000C9453000C9453000C94530011241FBE95
:10008000CFEFD8E0DEBFCDBF13E0A0E0B1E0EEEAF5
:10009000F7E002C005900D92A634B107D9F70E948F
:1000A000EA010C94D5030C940000A0E8B0E01C9287
:1000B000E1E8F0E0108210928500109284008C91AB
:1000C00081608C938081886080838081816080835F
:1000D0000895FC0160830C945500FC018081882305
:1000E00019F0813029F0089580918000806803C064
:1000F000809180008062809380000895FC0180815F
:10010000882319F0813029F00895809180008F773D
:1001100003C0809180008F7D809380000895FC0152
:100120008081882319F0813039F0089570E0709350
:10013000890060938800089570E070938B0060934D
:100140008A0008950F931F93CF93DF931F92CDB72B
:10015000DEB78C01FC01608349830E945500498110
:10016000642FC8010F90DF91CF911F910F910C94D4
:100170008F0014BC15BC16BC84B5826084BD85B5E7
:10018000846085BD08950C94B900CF93DF931F92CE
:10019000CDB7DEB769830E94B900698167BD0F9052
:1001A000DF91CF91089584B5806484BD089584B5AE
:1001B0008F7B84BD089567BD0895CF92DF92EF9243
:1001C000FF92CF93DF936B017C01C0E0D0E0BE01D2
:1001D0000D2E000C880B990B0E946203A70196015B
:1001E0000E945B03181644F08FEC97E00197F1F73B
:1001F00000C000002196EBCFDF91CF91FF90EF90F0
:10020000DF90CF9008950F931F93CF93DF93CDB7D7
:10021000DEB7C554D1090FB6F894DEBF0FBECDBF0F
:100220008C010E94B90085E4E0E0F1E0DE01119666
:1002300001900D928A95E1F7FE013196D801119651
:10024000CE018A5B9F4F21912D93E817F907D9F7CB
:10025000F801EA5BFF4F11821082CB5BDF4F0FB6D4
:10026000F894DEBF0FBECDBFDF91CF911F910F91EC
:1002700008950895FC01EA5BFF4FCB016CE370E049
:100280000E94C10388EE93E00E94C10371836083E2
:1002900008952DED260F253430F4860F911DFC01B5
:1002A000B297808187BD08950C94D3000C94D70039
:1002B0000F931F93CF93DF93EC018DED860F8E018B
:1002C0000A5B1F4F8534B0F4CE010E944901CE0174
:1002D0000E94D300F8016081718180E090E00E946B
:1002E00060030E94DD00CE01DF91CF911F910F913D
:1002F0000C94D700CE010E94D700F8016081718173
:1003000080E090E00E946003DF91CF911F910F91F8
:100310000C94DD000F931F93CF93DF931F92CDB703
:10032000DEB78C01FC0110820E94550081E0F801CB
:10033000818312828983CE0101960E9455008981B2
:10034000F80180830F90DF91CF911F910F91089555
:100350000F931F93CF93DF9300D0CDB7DEB78C01FF
:10036000FC0110826A830E94550081E0F8018183BC
:100370006A816283613011F4198201C08983CE01E0
:1003800001960E9455008981F80180830F900F909B
:10039000DF91CF911F910F9108950895CF93DF932F
:1003A000EC010E948F00CE01DF91CF910C946D0083
:1003B0000C947E00FC018281662331F0811102C021
:1003C0005E9808955F980895811102C05E9A08951D
:1003D0005F9A08956F927F928F929F92AF92BF9291
:1003E000CF92DF92EF92FF920F931F93CF93DF9301
:1003F000CDB7DEB7CF54D2400FB6F894DEBF0FBEF4
:10040000CDBF8FEF8AB984B91BB860E0CE01835BA2
:100410009D4F0E94A80161E0CE01865B9D4F0E9426
:10042000A80161E0CE01835B9D4F0E94DA0161E08B
:10043000CE01865B9D4F0E94DA017E0183EFE80EBC
:10044000F11CC7010E9403018EE390E0C75CDE4F00
:1004500099838883C953D14081E2E5E4F1E0DE016C
:10046000A75DBD4F01900D928A95E1F75E01E1E82D
:10047000AE1AEEEFBE0A8EE3E6E6F1E0D50101909A
:100480000D928A95E1F78AE3E4EAF1E0DE01A354F4
:10049000BE4F01900D928A95E1F784E4EEEDF1E014
:1004A000DE01A55CBE4F01900D928A95E1F78CE7C5
:1004B000E2E2F2E0DE01119601900D928A95E1F7F9
:1004C0006E01FDE7CF0ED11C86E7EEE9F2E0D60122
:1004D00001900D928A95E1F782E3E4E1F3E0DE0119
:1004E000A950BE4F01900D928A95E1F78E01075DEC
:1004F0001D4F480181E2880E911CF80161918F0126
:10050000C7010E94580108151905B9F766E9CE011F
:10051000835B9D4F0E94CE0166E9CE01865B9D4FB5
:100520000E94CE0185013501FEE36F0E711C45016D
:10053000F40161914F01C7010E945801861497048C
:10054000B9F760E0CE01835B9D4F0E94DA01F801AC
:1005500061918F01C7010E94580106151705B9F76F
:1005600061E0CE01835B9D4F0E94DA0160E0CE0125
:10057000865B9D4F0E94DA018E0103541E4F480195
:10058000FAE38F0E911CF80161918F01C7010E945F
:10059000580108151905B9F760E0CE01835B9D4F3E
:1005A0000E94DA018E01055C1E4FF80161918F01F6
:1005B000C7010E9458010A151B05B9F761E0CE0179
:1005C000835B9D4F0E94DA0161E0CE01865B9D4F07
:1005D0000E94DA0168E7CE01835B9D4F0E94CE0145
:1005E0006AEFCE01865B9D4F0E94CE018E010F5FA8
:1005F0001F4FF80161918F01C7010E9458010C152E
:100600001D05B9F76AEFCE01835B9D4F0E94CE01B5
:1006100068E7CE01865B9D4F0E94CE01F801619193
:100620008F01C7010E9458010E151F05B9F760E040
:10063000CE01865B9D4F0E94DA016AEFCE01835B9B
:100640009D4F0E94CE016AEFCE01865B9D4F0E94B6
:10065000CE018E0109501E4F6801F5E3CF0ED11C6B
:10066000F80161918F01C7010E9458010C151D0509
:10067000B9F7CE01835B9D4F0E947E00CE01865B61
:100680009D4F0E947E0080E090E0C15BDD4F0FB681
:10069000F894DEBF0FBECDBFDF91CF911F910F91B8
:1006A000FF90EF90DF90CF90BF90AF909F908F9092
:1006B0007F906F9008950E949D0308F481E0089553
:1006C000E89409C097FB3EF49095809570956195EC
:1006D0007F4F8F4F9F4F9923A9F0F92F96E9BB27A2
:1006E0009395F695879577956795B795F111F8CF1E
:1006F000FAF4BB0F11F460FF1BC06F5F7F4F8F4F89
:100700009F4F16C0882311F096E911C0772321F07E
:100710009EE8872F762F05C0662371F096E8862F16
:1007200070E060E02AF09A95660F771F881FDAF76D
:10073000880F9695879597F90895990F0008550F9A
:10074000AA0BE0E8FEEF16161706E807F907C0F057
:1007500012161306E407F50798F0621B730B840B5F
:10076000950B39F40A2661F0232B242B252B21F439
:1007700008950A2609F4A140A6958FEF811D811DD9
:100780000895AA1BBB1B51E107C0AA1FBB1FA617D8
:10079000B70710F0A61BB70B881F991F5A95A9F72A
:0E07A00080959095BC01CD010895F894FFCF8F
:1007AE00FCEDE0D377BCB1A79E958D857D766F6904
:1007BE00635D58534E4A46423E3A3734312E2B290A
:1007CE00262422201E1C1B19181615141211100F88
:1007DE000E0D0D0C0B0A0A0908080707060606057A
:1007EE0005040404034C0C4C0C140C4C0C140C4857
:1007FE000C4C0C140C4F0C14000000000000430CA9
:10080E00140000000000480C1418000000430C14E3
:10081E0018000000400C14180000450C140C470C76
:10082E00140C460C450C140C43104C104F10510C6C
:10083E00140C4D0C4F0C140C4C0C140C480C4A0C94
:10084E00470C1418300C140C4F0C4E0C4D0C4B0C5A
:10085E003C0C4C0C350C440C450C480C3C0C450C1B
:10086E00480C4A0C300C140C4F0C4E0C4D0C4B0C0F
:10087E00370C4C0C140C540C140C540C540C370C2C
:10088E00140C300C140C4F0C4E0C4D0C4B0C3C0C31
:10089E004C0C350C440C450C480C3C0C450C480CCF
:1008AE004A0C300C140C4B18140C0000004A18148F
:1008BE000C0000004818140C0000370C370C140CF8
:1008CE00300C480C480C140C480C140C480C4A0CF8
:1008DE00140C4C0C480C140C450C430C140C2B0C27
:1008EE00140C480C480C140C480C140C480C4A0CF4
:1008FE004C0C370C1418300C14182B0C140C480C10
:10090E00480C140C480C140C480C4A0C140C4C0CCF
:10091E00480C140C450C430C140C2B0C140C4C0CE6
:10092E004C0C140C4C0C140C480C4C0C140C4F0CA2
:10093E00140C00000000430C140C000000004C0CC2
:10094E00480C140C430C370C140C440C140C450CB2
:10095E004D0C350C4D0C450C3C0C350C140C471045
:10096E005110511051104F104D104C0C480C370CAB
:10097E00450C430C3C0C370C140C4C0C480C140C52
:10098E00430C370C140C440C140C450C4D0C350C4C
:10099E004D0C450C3C0C350C140C470C4D0C140C2A
:1009AE004D0C4D104C104A10480C400C370C400C9E
:1009BE003C0C140C4848484848484843434343437A
:1009CE0043434040404040404040404545474745F6
:1009DE0045444446464444434341414343434343D1
:0609EE0043434343434371
:00000001FF
